:100000000C94BA000C94D7000C94D7000C94D70031
:100010000C94D7000C94D7000C94D7000C94D70004
:100020000C94D7000C94D7000C94D7000C94D700F4
:100030000C94D7000C94D7000C94D7000C94D700E4
:100040000C94D7000C94D7000C94D7000C94D700D4
:100050000C94D700EC0005011E0137014F014F0140
:100060004F014F014F014F014F014F014F014F0110
:100070004F014F014F014F014F014F014F014F0100
:100080004F014F014F014F014F014F014F014F01F0
:100090004F014F01EC0005011E0137015C017501A4
:1000A0008E01A701BF01BF01BF01BF01BF01BF0199
:1000B000BF01BF01BF01BF01BF01BF01BF01BF0140
:1000C000BF01BF01BF01BF01BF01BF01BF01BF0130
:1000D000BF01BF01BF01BF01BF01BF015C017501CD
:1000E0008E01A701CC01DE01F0010202140214020C
:1000F0001402140214021402140214021402140250
:10010000140214021402140214021402140214023F
:10011000140214021402140214021402140214022F
:1001200014021402CC01DE01F001020222023B02A1
:1001300054026D02850285028502850285028502D0
:100140008502850285028502850285028502850277
:100150008502850285028502850285028502850267
:1001600085028502850285028502850222023B0204
:1001700054026D0211241FBECFE5D8E0DEBFCDBF13
:1001800010E0A0E6B0E0EAEAFDE002C005900D92C2
:10019000AA3CB107D9F720E0AAECB0E001C01D925B
:1001A000A13DB207E1F70E9462040C94D3060C94BF
:1001B000000040E00E94E00008950E94C001089500
:1001C00090E0FC01E154F109E432F10508F067C068
:1001D000E65DFF4F0C94CD06413059F42AB381E01F
:1001E00090E002C0880F991F6A95E2F7822B8ABBC4
:1001F00008952AB381E090E002C0880F991F6A95A4
:10020000E2F7809582238ABB0895413059F427B3E1
:1002100081E090E002C0880F991F6A95E2F7822B77
:1002200087BB089527B381E090E002C0880F991F33
:100230006A95E2F78095822387BB0895413059F48F
:1002400024B381E090E002C0880F991F6A95E2F71D
:10025000822B84BB089524B381E090E002C0880F14
:10026000991F6A95E2F78095822384BB08954130F7
:1002700059F421B381E090E002C0880F991F6A957C
:10028000E2F7822B81BB089521B381E090E002C0A8
:10029000880F991F6A95E2F78095822381BB0895A4
:1002A00090E0FC01E154F109E432F10508F067C087
:1002B000E25BFF4F0C94CD06413059F42BB381E043
:1002C00090E002C0880F991F6A95E2F7822B8BBBE2
:1002D00008952BB381E090E002C0880F991F6A95C2
:1002E000E2F7809582238BBB0895413059F428B3FF
:1002F00081E090E002C0880F991F6A95E2F7822B97
:1003000088BB089528B381E090E002C0880F991F50
:100310006A95E2F78095822388BB0895413059F4AD
:1003200025B381E090E002C0880F991F6A95E2F73B
:10033000822B85BB089525B381E090E002C0880F31
:10034000991F6A95E2F78095822385BB0895413015
:1003500059F422B381E090E002C0880F991F6A959A
:10036000E2F7822B82BB089522B381E090E002C0C5
:10037000880F991F6A95E2F78095822382BB0895C2
:1003800090E0FC01E154F109E432F10508F04CC0C1
:10039000EE58FF4F0C94CD0629B381E090E0062E75
:1003A00002C0880F991F0A94E2F730E0822393235A
:1003B00002C0959587956A95E2F7089526B381E086
:1003C00090E0062E02C0880F991F0A94E2F730E0F1
:1003D0008223932302C0959587956A95E2F7089545
:1003E00023B381E090E0062E02C0880F991F0A9483
:1003F000E2F730E08223932302C0959587956A95B2
:10040000E2F7089520B381E090E0062E02C0880F45
:10041000991F0A94E2F730E08223932302C0959556
:1004200087956A95E2F7089580E0089590E0FC01D1
:10043000E154F109E432F10508F067C0EA56FF4FD4
:100440000C94CD06413059F42BB381E090E002C00A
:10045000880F991F6A95E2F7822B8BBB08952BB307
:1004600081E090E002C0880F991F6A95E2F78095BD
:1004700082238BBB0895413059F428B381E090E08A
:1004800002C0880F991F6A95E2F7822B88BB0895F6
:1004900028B381E090E002C0880F991F6A95E2F7C7
:1004A0008095822388BB0895413059F425B381E0BB
:1004B00090E002C0880F991F6A95E2F7822B85BBF6
:1004C000089525B381E090E002C0880F991F6A95D6
:1004D000E2F78095822385BB0895413059F422B319
:1004E00081E090E002C0880F991F6A95E2F7822BA5
:1004F00082BB089522B381E090E002C0880F991F6B
:100500006A95E2F78095822382BB08956F708234EA
:1005100081F018F4813431F00895833489F0843403
:10052000B1F008958BB3807F8BBB8BB3682B6BBB13
:10053000089588B3807F88BB88B3682B68BB089513
:1005400085B3807F85BB85B3682B65BB089582B377
:10055000807F82BB82B3682B62BB08958EBB9FBB3A
:100560006DBBE29AE19AE199FECF08958EBB9FBBE5
:10057000E09A8DB3089541E060E081E40E94E000DC
:1005800041E061E081E40E94E00041E062E081E45A
:100590000E94E00041E063E081E40E94E00040E06E
:1005A00064E081E40E94E00040E065E081E40E94B4
:1005B000E00040E066E081E40E94E00040E067E0A7
:1005C00081E40E94E00041E064E081E40E941602C0
:1005D00041E065E081E40E94160241E066E081E4CA
:1005E0000E94160241E067E081E40E94160208952D
:1005F0000F931F93CF93DF93CDB7DEB760970FB6FE
:10060000F894DEBF0FBECDBF80E1E2E6F0E0DE0190
:10061000119601900D928A95E1F700E041E060E0CB
:1006200081E40E94500141E061E081E40E945001B8
:1006300041E062E081E40E94500141E063E081E436
:100640000E94500140E0602F81E40E94500110E0C0
:1006500064E0610F81E40E94C00181110DC0E1E0FE
:10066000F0E0EC0FFD1F84E0089FE00DF11D112468
:10067000E10FF11D808107C01F5F143049F70F5F44
:10068000043061F68FEF60960FB6F894DEBF0FBEB0
:10069000CDBFDF91CF911F910F91089541E060E0B0
:1006A00082E40E9450018FE99FE00197F1F700C0BA
:1006B000000040E060E082E40E9450018FE99FE08A
:1006C0000197F1F700C000000895CF93C82F682F5D
:1006D00062956F7070E084E40E94860240E061E001
:1006E00082E40E9450010E944E036C2F70E084E46B
:1006F0000E94860240E061E082E40E9450010E9474
:100700004E038FEC97E00197F1F700C00000CF9106
:1007100008952FEF81EE94E0215080409040E1F762
:1007200000C0000041E060E084E40E94E00041E09D
:1007300061E084E40E94E00041E062E084E40E9421
:10074000E00041E063E084E40E94E00041E064E016
:1007500084E40E94E00041E065E084E40E94E0005F
:1007600041E066E084E40E94E00041E067E084E468
:100770000E94E00041E060E082E40E94E00041E08D
:1007800061E082E40E94E00041E062E082E40E94D5
:10079000E00040E062E082E40E94500182E00E94BA
:1007A00065038FE19EE40197F1F700C0000088E245
:1007B0000E9465038FEC97E00197F1F700C00000FD
:1007C0008EE00E9465038FEC97E00197F1F700C07F
:1007D000000081E00E9465038FEC97E00197F1F73C
:1007E00000C0000086E00E9465038FEC97E001974F
:1007F000F1F700C000000895CF93C82F682F6295CD
:100800006F7070E084E40E94860241E061E082E45F
:100810000E9450010E944E036C2F70E084E40E94FD
:10082000860241E061E082E40E9450010E944E0392
:100830008FEC97E00197F1F700C00000CF91089589
:1008400081E00E9465038FE19EE40197F1F700C00B
:1008500000000895CF93DF93EC018881882331F065
:1008600021960E94FC0389918111FBCFDF91CF91EA
:1008700008959FEF980F9430C0F49FEF960F943136
:10088000B0F4813019F42FE7260F12C0823019F42A
:100890002FEB260F0DC0833019F423E9260F08C073
:1008A000843031F423ED260F03C020E801C020E896
:1008B000822F0E9465038FEC97E00197F1F700C04B
:1008C000000008950E94BB020E94890364E082E454
:1008D0000E94D90064E082E40E94DD00813029F4A6
:1008E0000E94AC050E946705F5CF0E9467050E9433
:1008F0007A04F0CF0F931F93CF93DF93CCECD0E02B
:100900000FEFD7C060E070E080E89FE30E94C10570
:100910000B830A83098308830E94200482E790E006
:100920000E942A041092D0008091D000843008F0F8
:1009300044C01091D0000E94F802E12FF0E0E4538F
:10094000FF4F80838FE493EC0197F1F700C0000024
:10095000E091D000F0E0E453FF4F80818F3F49F3F6
:10096000E091D000F0E0E453FF4F80810E94FC034F
:100970009FE926E881E0915020408040E1F700C0E7
:1009800000006091D000645F81E00E9439048AE237
:100990000E94FC039FE926E881E0915020408040BE
:1009A000E1F700C000008091D0008F5F8093D000FD
:1009B0008091D000843008F4BCCF81E390E00E94A5
:1009C000B602988189132FC082E390E00E94B6029C
:1009D0009981891328C083E390E00E94B6029A812E
:1009E000891321C084E390E00E94B6029B818913A1
:1009F0001AC060E070E080E090E40E94C1050E94AF
:100A000020048EE790E00E942A0461E082E00E94C8
:100A100039048DE890E00E942A0481E08093CA00A6
:100A20008093CB0046C0809160008150809360002D
:100A300080916000882321F10E94200489E990E0E0
:100A40000E942A049FE32DE083E0915020408040E3
:100A5000E1F700C000000E94200488EA90E00E94B4
:100A60002A0480916000805D0E94FC039FE32DE0DA
:100A700083E0915020408040E1F700C0000019C0A1
:100A80000E94200460E070E080E89FE30E94C105BE
:100A900089E990E00E942A0461E082E00E94390422
:100AA00084EB90E00E942A0481E08093CA00809346
:100AB000CB008091CA00811105C08091CB008823B2
:100AC00009F420CFDF91CF911F910F91089580E31A
:100AD00090E00E94B6028F3FF1F580EC90E00E941A
:100AE0002A041092D0008091D000843078F50E94C2
:100AF000F80280936100809161008F3FC1F3809183
:100B000061000E94FC032FE986E891E021508040BB
:100B10009040E1F700C000006091D000665F81E086
:100B20000E9439048AE20E94FC0360916100809176
:100B3000D00090E0C1960E94AE028091D0008F5FFD
:100B40008093D0008091D000843088F260E080E310
:100B500090E00E94AE02089564E082E40E94DD000D
:100B6000813071F460E070E080E89FE30E94C1058D
:100B70000E9420041092CA001092CB000E947A04B6
:100B800008958D9A2FB522602FBD2EB528602EBDF9
:100B90002EB520612EBD20E030E04AE754E40E94EB
:100BA00038060E94E0057BBD6ABD8FE19EE497BDDB
:100BB00086BD8EB581608EBD8FB580688FBD08956E
:100BC0000E94170688F09F5798F0B92F9927B751C0
:100BD000B0F0E1F0660F771F881F991F1AF0BA95E1
:100BE000C9F714C0B13091F00E943106B1E0089508
:100BF0000C943106672F782F8827B85F39F0B93FFA
:100C0000CCF3869577956795B395D9F73EF4909593
:100C10008095709561957F4F8F4F9F4F089557FD39
:100C20009058440F551F59F05F3F71F04795880F5A
:100C300097FB991F61F09F3F79F0879508951216F1
:100C400013061406551FF2CF4695F1DF08C016169D
:100C500017061806991FF1CF86957105610508944E
:100C60000895E894BB2766277727CB0197F9089565
:100C70000E944B060C94BC060E94AE0638F00E94FF
:100C8000B50620F0952311F00C94A5060C94AB0644
:100C900011240C9432060E940F0670F3959FC1F345
:100CA000950F50E0551F629FF001729FBB27F00D1A
:100CB000B11D639FAA27F00DB11DAA1F649F66276F
:100CC000B00DA11D661F829F2227B00DA11D621FBE
:100CD000739FB00DA11D621F839FA00D611D221F78
:100CE000749F3327A00D611D231F849F600D211D5C
:100CF000822F762F6A2F11249F5750409AF0F1F0DF
:100D000088234AF0EE0FFF1FBB1F661F771F881F47
:100D100091505040A9F79E3F510580F00C94A506D4
:100D20000C9432065F3FE4F3983ED4F386957795B2
:100D30006795B795F795E7959F5FC1F7FE2B880FED
:100D4000911D9695879597F9089597F99F6780E883
:100D500070E060E008959FEF80EC089500240A940D
:100D60001616170618060906089500240A94121686
:100D70001306140605060895092E0394000C11F4B9
:100D8000882352F0BB0F40F4BF2B11F460FF04C066
:100D90006F5F7F4F8F4F9F4F0895EE0FFF1F05909E
:0A0DA000F491E02D0994F894FFCFC0
:100DAA0003FF3132332B3435362D3738392A633045
:100DBA003D2F636865636B20706173733A007269D3
:100DCA006768742070617373776F72640073616609
:100DDA0065206F70656E65640077726F6E6720704C
:100DEA00617373776F7264007472696573206C65DE
:100DFA0066743A007361666520636C6F736564009C
:0A0E0A0053455420504153533A0061
:00000001FF
